:020000040800F2
:1000000000500020E51F0008111F0008171F0008FE
:100010001D1F0008231F0008291F00080000000002
:100020000000000000000000000000002F1F00087A
:100030003B1F000800000000471F0008531F000876
:100040002D2000082D2000082D2000082D2000085C
:100050002D2000082D2000085F1F00082D2000081B
:100060002D2000082D2000082D2000082D2000083C
:100070002D2000082D2000082D2000082D2000082C
:100080002D2000082D2000082D2000082D2000081C
:100090002D2000082D2000082D2000082D2000080C
:1000A0002D2000082D2000082D2000082D200008FC
:1000B0002D2000082D2000082D2000082D200008EC
:1000C0002D2000082D2000082D2000082D200008DC
:1000D0002D2000082D2000082D2000082D200008CC
:1000E0002D2000082D2000082D2000080000000011
:1000F0000000000000000000000000000000000000
:0C01000000000000000000005FF808F1A3
:10010C0010B5054C237833B9044B13B10448AFF345
:10011C0000800123237010BD74000020000000003B
:10012C006852000808B5034B1BB103490348AFF3F1
:10013C00008008BD00000000780000206852000814
:10014C00034613F8012B002AFBD1181A013870470B
:10015C0080B483B000AF7860144A7B681A607B6807
:10016C000022C3F8EC207B680022C3F8F0207B68E7
:10017C000022C3F8F4207B680022C3F8F8207B68C7
:10018C000022C3F8FC207B680022C3F800217B68A6
:10019C000022C3F804217B680022C3F808217B6885
:1001AC0018460C37BD4680BC704700BF5054000841
:1001BC0080B483B000AF7860044A7B681A607B68B7
:1001CC0018460C37BD4680BC704700BF5054000821
:1001DC0080B582B000AF78607868FFF7E9FF4FF424
:1001EC008671786804F082FB7B6818460837BD4638
:1001FC0080BD80B584B000AF786007F10F031A465C
:10020C009221786801F07AF9034683F00103DBB29E
:10021C00002B01D0002382E1FB7BAB2B04D0FB7BBA
:10022C009C2B01D000237AE100220721786800F092
:10023C0092F9034683F00103DBB2002B01D00023BB
:10024C006DE1DB228121786801F032F9034683F0FD
:10025C000103DBB2002B01D0002360E1F6228321E5
:10026C00786801F025F9034683F00103DBB2002B1B
:10027C0001D0002353E187228E21786801F018F910
:10028C00034683F00103DBB2002B01D0002346E1CF
:10029C0000229D21786801F00BF9034683F00103DD
:1002AC00DBB2002B01D0002339E100229E217868BB
:1002BC0001F0FEF8034683F00103DBB2002B01D002
:1002CC0000232CE160228D21786801F0F1F80346BF
:1002DC0083F00103DBB2002B01D000231FE10021CE
:1002EC00786800F05FFE034683F00103DBB2002B5D
:1002FC0001D0002313E10221786800F08CFE034644
:10030C0083F00103DBB2002B01D0002307E10121B4
:10031C00786800F0BAFE034683F00103DBB2002BD1
:10032C0001D00023FBE00021786800F009FE0346B1
:10033C0083F00103DBB2002B01D00023EFE032216C
:10034C00786800F016FE034683F00103DBB2002B45
:10035C0001D00023E3E04FF6FF71786800F0DEFF78
:10036C00034683F00103DBB2002B01D00023D6E05F
:10037C000021786800F0FFFF034683F00103DBB235
:10038C00002B01D00023CAE011228C21786801F0E7
:10039C008FF8034683F00103DBB2002B01D000235E
:1003AC00BDE001229021786801F082F8034683F0C9
:1003BC000103DBB2002B01D00023B0E000229F210F
:1003CC00786801F075F8034683F00103DBB2002B6B
:1003DC0001D00023A3E02821786800F0C5FE034675
:1003EC0083F00103DBB2002B01D0002397E01E2128
:1003FC00786800F0D2FE034683F00103DBB2002BD9
:10040C0001D000238BE04022A221786801F050F843
:10041C00034683F00103DBB2002B01D000237EE006
:10042C000021786800F0D2FE034683F00103DBB2B2
:10043C00002B01D0002372E00021786800F0FFFE51
:10044C00034683F00103DBB2002B01D0002366E0EE
:10045C000121786800F02CFF034683F00103DBB226
:10046C00002B01D000235AE00022A421786801F06F
:10047C001FF8034683F00103DBB2002B01D00023ED
:10048C004DE00022A521786801F012F8034683F0B4
:10049C000103DBB2002B01D0002340E00022A72196
:1004AC00786801F005F8034683F00103DBB2002BFA
:1004BC0001D0002333E00022A921786800F0F8FF76
:1004CC00034683F00103DBB2002B01D0002326E0AE
:1004DC00C922A621786800F0EBFF034683F00103E4
:1004EC00DBB2002B01D0002319E00022AA2178688E
:1004FC0000F0DEFF034683F00103DBB2002B01D0DA
:10050C0000230CE00021786800F062FF034683F0C2
:10051C000103DBB2002B01D0002300E001231846BD
:10052C001037BD4680BD80B584B000AF786007F150
:10053C000F031A468021786800F0E0FF034683F031
:10054C000103DBB2002B01D0FF2300E0FB7B18463C
:10055C001037BD4680BD80B584B000AF78600B46C7
:10056C00FB701346BB707868FFF7DDFF0346FB7327
:10057C00FB7BFF2B01D100233BE0BB7803F0010395
:10058C00BB70FB78062B1AD8BB78002B0AD0FB78F3
:10059C00012202FA03F35AB297F90F3013435BB2FC
:1005AC00FB7317E0FB78012202FA03F35BB2DB4327
:1005BC005AB297F90F3013405BB2FB730AE0FB7829
:1005CC00072B07D1BB78002B02D07F23FB7301E0F4
:1005DC000023FB73FB7B1A468021786800F068FFD0
:1005EC00034683F00103DBB2002B01D0002300E0B3
:1005FC00012318461037BD4680BD80B582B000AFD0
:10060C0078600B46FB70786800F099F9FF22832123
:10061C00786800F04DFF034683F00103DBB2002B3A
:10062C0001D0002372E089228E21786800F040FF0F
:10063C00034683F00103DBB2002B01D0002365E0FD
:10064C000321786800F057FD034683F00103DBB209
:10065C00002B01D0002359E0FB78002B0BD001219B
:10066C00786800F0B5FE034683F00103DBB2002B83
:10067C000DD000234AE00021786800F0A9FE034663
:10068C0083F00103DBB2002B01D000233EE00121FB
:10069C00786800F0D6FE034683F00103DBB2002B32
:1006AC0001D0002332E0786800F033F9034683F080
:1006BC000103DBB2002B01D0002327E00122032130
:1006CC007868FFF748FF034683F00103DBB2002B89
:1006DC0001D000231AE0012202217868FFF73BFFCA
:1006EC00034683F00103DBB2002B01D000230DE0A5
:1006FC00012206217868FFF72EFF034683F00103E1
:10070C00DBB2002B01D0002300E001231846083790
:10071C00BD4680BD80B584B000AF786007F10F0393
:10072C001A46AF21786800F0E9FE034683F0010316
:10073C00DBB2002B01D001230AE0FB7B03F00103A9
:10074C00DBB2FB73FB7B012B01D1012300E0002307
:10075C0018461037BD4680BD80B5A8B000AF786094
:10076C00002387F89330002387F89F307868FFF7D1
:10077C00D1FF034683F00103DBB2002B07D178686D
:10078C00FFF7D1FE034603F04103002B01D10123F7
:10079C0000E00023002B01D00023B6E01E2001F066
:1007AC00A3FC07F10F031A46AF21786800F0A6FEF0
:1007BC00034683F00103DBB2002B01D0FF23A4E03E
:1007CC00FB7B03F00103002B00F08F8007F19303F8
:1007DC001A46AE21786800F091FE034683F00103BF
:1007EC00DBB2002B01D0FF238FE097F89330002B66
:1007FC000BD097F893309B0007F11002FC2178681E
:10080C0000F0B0FE034687F89F3097F89F30032B1B
:10081C00C4D90023C7F8983097F89F30D7F89820A0
:10082C009A4250DA7B6893F8E830194607F11002C7
:10083C00D7F8983013441A787B680B4483F86820F7
:10084C00D7F8983001337A6892F8E8201146A03333
:10085C003B4413F8902C7B680B4483F88820D7F822
:10086C00983002337A6892F8E8201146A0333B4462
:10087C0013F8902C7B680B4483F8A820D7F8983099
:10088C0003337A6892F8E8201146A0333B4413F8FE
:10089C00902C7B680B4483F8C8207B6893F8E83075
:1008AC000133DAB27B6883F8E8207B6893F8E9308F
:1008BC000133DAB27B6883F8E920D7F89830043337
:1008CC00C7F89830A8E7786800F06AF80346002B60
:1008DC0002D0786800F044FA7B68002283F8E820A4
:1008EC007B68002283F8E92058E71E2001F0FCFB0E
:1008FC00786800F035FA7B68D3F80831C7F8943083
:10090C00786800F01CF8D7F894301846A037BD462C
:10091C0080BD80B582B000AF78600122002178687C
:10092C00FFF719FE034683F00103DBB2002B01D065
:10093C00002300E0012318460837BD4680BD80B473
:10094C0083B000AF78607B68002283F8E8207B6876
:10095C00002283F8E9207B680022C3F8EC207B6836
:10096C000022C3F8F0207B680022C3F8F4207B68D7
:10097C000022C3F8F8207B680022C3F8FC207B68B7
:10098C000022C3F800217B680022C3F804217B6895
:10099C000022C3F8082100BF0C37BD4680BC70474D
:1009AC0080B48DB000AF7860002387F82F3000231F
:1009BC0087F82E30002387F82D30002387F82C3051
:1009CC00002387F82B30002387F82A30002387F880
:1009DC002930002387F828307B6893F8E930042B02
:1009EC0001D80023B7E17B6893F8E930202B00F2A3
:1009FC00A3807B6893F8E930002B00F09D800023E6
:100A0C007B627B6893F8E9301A467B6A93423CDA46
:100A1C007A687B6A134468331B780A2B31D97A685D
:100A2C007B6A134488331B780A2B2AD97A687B6A31
:100A3C001344A8331B780A2B23D97A687B6A134496
:100A4C00C8331B780A2B1CD97A687B6A1344683329
:100A5C001B7887F82F307A687B6A134488331B78AD
:100A6C0087F82E307A687B6A1344A8331B7887F892
:100A7C002D307A687B6A1344C8331B7887F82C3086
:100A8C0003E07B6A01337B62BBE797F82F30002BC6
:100A9C000BD097F82E30002B07D097F82D30002B69
:100AAC0003D097F82C30002B01D1002353E17B6845
:100ABC0093F8E930013B7B627B6A002B3CDB7A6864
:100ACC007B6A134468331B780A2B31D97A687B6AAA
:100ADC00134488331B780A2B2AD97A687B6A13440F
:100AEC00A8331B780A2B23D97A687B6A1344C83342
:100AFC001B780A2B1CD97A687B6A134468331B78E1
:100B0C0087F82B307A687B6A134488331B7887F814
:100B1C002A307A687B6A1344A8331B7887F829300B
:100B2C007A687B6A1344C8331B7887F8283003E053
:100B3C007B6A013B7B62BFE797F82F2097F82E303A
:100B4C00D31A642203FB02F297F82F1097F82E3079
:100B5C000B4492FBF3F33B6297F82D2097F82C3063
:100B6C00D31A642203FB02F297F82D1097F82C305D
:100B7C000B4492FBF3F3FB6197F82B2097F82A3088
:100B8C00D31A642203FB02F297F82B1097F82A3041
:100B9C000B4492FBF3F3BB6197F8292097F82830AC
:100BAC00D31A642203FB02F297F8291097F8283025
:100BBC000B4492FBF3F37B61BA693B6AD31A3B613A
:100BCC007A69FB69D31AFB607B68D3F8EC203B692C
:100BDC001A447B68C3F8EC207B68D3F8F020FB68E0
:100BEC001A447B68C3F8F0207B68D3F8EC30312BC7
:100BFC0004DD7B680122C3F8F4200FE07B68D3F896
:100C0C00EC3013F1310F05DA7B684FF0FF32C3F88B
:100C1C00F42003E07B680022C3F8F4207B68D3F84F
:100C2C00F030312B04DD7B680122C3F8F8200FE093
:100C3C007B68D3F8F03013F1310F05DA7B684FF095
:100C4C00FF32C3F8F82003E07B680022C3F8F820D9
:100C5C007B68D3F8F430002B4CD17B68D3F8F83098
:100C6C00002B47D13B69002BB8BF5B42132B70DCC8
:100C7C00FB68002BB8BF5B42132B6ADC3B69002B73
:100C8C000AD1FB68002B07D17B68D3F8FC305A1CC7
:100C9C007B68C3F8FC200CE03B69002B02D1FB689D
:100CAC00002B06D07B68D3F800315A1C7B68C3F844
:100CBC0000217B68D3F8FC30092B4ADD7B68D3F824
:100CCC000031012B45DD3B69002B07D1FB68002B64
:100CDC0004D17B680122C3F8042109E03B69002B95
:100CEC0006D0FB68002B03D07B680222C3F80421DA
:100CFC00012330E03B69002BB8BF5B42132B29DC8E
:100D0C00FB68002BB8BF5B42132B23DC3B69002B29
:100D1C0009D1FB68002B06D17B68D3F8FC305A1C38
:100D2C007B68C3F8FC207B68D3F8FC30092B11DD01
:100D3C007B680022C3F8F4207B680022C3F8F820FB
:100D4C007B680022C3F8EC207B680022C3F8F020FB
:100D5C0000E000BF002318463437BD4680BC704706
:100D6C0080B483B000AF78607B68D3F80431012B7A
:100D7C0005D17B680522C3F808210123DBE07B68E1
:100D8C00D3F80431022B05D17B680622C3F8082165
:100D9C000123D0E07B68D3F8F430B3F1FF3F09D1E5
:100DAC007B68D3F8F830002B04D17B680322C3F89E
:100DBC000821BFE07B68D3F8F430012B09D17B68A4
:100DCC00D3F8F830002B04D17B680422C3F8082137
:100DDC00B0E07B68D3F8F430002B09D17B68D3F8F2
:100DEC00F830012B04D17B680222C3F80821A1E062
:100DFC007B68D3F8F430002B0AD17B68D3F8F83039
:100E0C00B3F1FF3F04D17B680122C3F8082191E0C4
:100E1C007B68D3F8F430B3F1FF3F1DD17B68D3F876
:100E2C00F830012B18D17B68D3F8EC3083EAE372ED
:100E3C00A2EBE3727B68D3F8F030002BB8BF5B42B7
:100E4C009A4204DD7B680322C3F8082172E07B68B8
:100E5C000222C3F808216DE07B68D3F8F430012B33
:100E6C001ED17B68D3F8F830B3F1FF3F18D17B6803
:100E7C00D3F8EC3083EAE372A2EBE3727B68D3F82D
:100E8C00F030002BB8BF5B429A4204DD7B68042231
:100E9C00C3F808214EE07B680122C3F8082149E021
:100EAC007B68D3F8F430B3F1FF3F1ED17B68D3F8E5
:100EBC00F830B3F1FF3F18D17B68D3F8EC3083EAFC
:100ECC00E372A2EBE3727B68D3F8F030002BB8BF6F
:100EDC005B429A4204DD7B680322C3F8082129E0B7
:100EEC007B680122C3F8082124E07B68D3F8F43036
:100EFC00012B1DD17B68D3F8F830012B18D17B68FE
:100F0C00D3F8EC3083EAE372A2EBE3727B68D3F89C
:100F1C00F030002BB8BF5B429A4204DD7B680422A0
:100F2C00C3F8082106E07B680222C3F8082101E01F
:100F3C00002300E0012318460C37BD4680BC7047E7
:100F4C0080B582B000AF78600B46FB70FB781A4618
:100F5C008921786800F0ACFA034683F00103DBB218
:100F6C00002B01D0002300E0012318460837BD46B2
:100F7C0080BD80B582B000AF78600B46FB70FB780B
:100F8C001A468B21786800F093FA034683F001032C
:100F9C00DBB2002B01D0002300E0012318460837F8
:100FAC00BD4680BD80B584B000AF78600B46FB7049
:100FBC0007F10F031A468F21786800F09FFA034659
:100FCC0083F00103DBB2002B01D000231FE0FB7880
:100FDC0003F00303FB70FB789B01FB70FB7B03F0BE
:100FEC003F03DBB2FB73FA7BFB781343DBB2FB737F
:100FFC00FB7B1A468F21786800F05AFA034683F07F
:10100C000103DBB2002B01D0002300E001231846C2
:10101C001037BD4680BD80B584B000AF78600B46FC
:10102C00FB7007F10F031A468F21786800F066FAFF
:10103C00034683F00103DBB2002B01D0002320E038
:10104C00FB7803F00303FB70FB789B00FB70FB7BCE
:10105C0023F00C03DBB2FB73FA7BFB781343DBB29C
:10106C00FB7307F10F031A468F21786800F046FADC
:10107C00034683F00103DBB2002B01D0002300E018
:10108C00012318461037BD4680BD80B584B000AF33
:10109C0078600B46FB7007F10F031A468F217868B6
:1010AC0000F02CFA034683F00103DBB2002B01D0D5
:1010BC0000231CE0FB7803F00303FB70FB7B23F0A5
:1010CC000303DBB2FB73FA7BFB781343DBB2FB73DA
:1010DC00FB7B1A468F21786800F0EAF9034683F00F
:1010EC000103DBB2002B01D0002300E001231846E2
:1010FC001037BD4680BD80B584B000AF78600B461C
:10110C00FB7007F10F031A469021786800F0F6F98E
:10111C00034683F00103DBB2002B01D000231FE058
:10112C00FB7803F00303FB70FB781B01FB70FB7B6C
:10113C0023F03003DBB2FB73FA7BFB781343DBB297
:10114C00FB73FB7B1A469021786800F0B1F90346DB
:10115C0083F00103DBB2002B01D0002300E001235C
:10116C0018461037BD4680BD80B582B000AF7860A0
:10117C000B46FB70FB781A46A021786800F098F9B2
:10118C00034683F00103DBB2002B01D0002300E007
:10119C00012318460837BD4680BD80B582B000AF2C
:1011AC0078600B46FB70FB781A46A121786800F03A
:1011BC007FF9034683F00103DBB2002B01D000233F
:1011CC0000E0012318460837BD4680BD80B584B0C9
:1011DC0000AF78600B46FB7007F10F031A46A32192
:1011EC00786800F08BF9034683F00103DBB2002B27
:1011FC0001D000231FE0FB7803F00303FB70FB78A6
:10120C005B01FB70FB7B23F06003DBB2FB73FA7BAF
:10121C00FB781343DBB2FB73FB7B1A46A321786884
:10122C0000F046F9034683F00103DBB2002B01D03A
:10123C00002300E0012318461037BD4680BD80B561
:10124C0084B000AF78600B46FB7007F10F031A46B1
:10125C00A321786800F052F9034683F00103DBB256
:10126C00002B01D000231FE0FB7803F00303FB707D
:10127C00FB78DB00FB70FB7B23F01803DBB2FB730A
:10128C00FA7BFB781343DBB2FB73FB7B1A46A3217F
:10129C00786800F00DF9034683F00103DBB2002BF4
:1012AC0001D0002300E0012318461037BD4680BD55
:1012BC0080B584B000AF78600B46FB7007F10F036C
:1012CC001A46A321786800F019F9034683F001034C
:1012DC00DBB2002B01D000231CE0FB7803F00703EA
:1012EC00FB70FB7B23F00703DBB2FB73FA7BFB7811
:1012FC001343DBB2FB73FB7B1A46A321786800F027
:10130C00D7F8034683F00103DBB2002B01D0002396
:10131C0000E0012318461037BD4680BD80B584B06F
:10132C0000AF78600B467B807B88FB737B881B0A45
:10133C009BB2BB73FB7B1A468421786800F0B8F82B
:10134C00034683F00103DBB2002B01D000230EE037
:10135C00BB7B1A468521786800F0AAF8034683F017
:10136C000103DBB2002B01D0002300E0012318465F
:10137C001037BD4680BD80B584B000AF78600B4699
:10138C007B807B88FB737B881B0A9BB2BB73FB7BCC
:10139C001A468621786800F08BF8034683F0010327
:1013AC00DBB2002B01D000230EE0BB7B1A46872159
:1013BC00786800F07DF8034683F00103DBB2002B64
:1013CC0001D0002300E0012318461037BD4680BD34
:1013DC0080B584B000AF78600B46FB7007F10F034B
:1013EC001A46AB21786800F089F8034683F00103B4
:1013FC00DBB2002B01D000231FE0FB7803F00103CC
:10140C00FB70FB785B00FB70FB7B23F00203DBB211
:10141C00FB73FA7BFB781343DBB2FB73FB7B1A4643
:10142C00AB21786800F044F8034683F00103DBB28B
:10143C00002B01D0002300E0012318461037BD46D5
:10144C0080BD80B584B000AF78600B46FB7007F1AF
:10145C000F031A46AB21786800F050F8034683F06E
:10146C000103DBB2002B01D000231CE0FB7803F05E
:10147C000103FB70FB7B23F00103DBB2FB73FA7BF4
:10148C00FB781343DBB2FB73FB7B1A46AB2178680A
:10149C0000F00EF8034683F00103DBB2002B01D001
:1014AC00002300E0012318461037BD4680BD000024
:1014BC0080B588B004AF78600B46FB701346BB70E8
:1014CC000023FB73FB789AB24FF0FF330293012396
:1014DC000193BB1C009301237221074801F0E2FD2C
:1014EC000346FB73FB7B002B01D0002300E00123A0
:1014FC0018461037BD4680BD9000002080B588B0DE
:10150C0002AFF8600B467A60FB720023FB75FB7A26
:10151C00BB7507F116024FF0FF33009301237221C4
:10152C000F4801F055FA0346FB75FB7D002B01D0EB
:10153C00002310E04FF0FF33009301237A687221EF
:10154C00074801F043FB0346FB75FB7D002B01D0E4
:10155C00002300E0012318461837BD4680BD00BFAC
:10156C009000002080B588B002AFF8607A603B60D4
:10157C000B46FB720023FB75FB7ABB7507F1160259
:10158C004FF0FF33009301237221114801F020FA30
:10159C000346FB75FB7D002B02D04FF0FF3312E0AE
:1015AC003B689BB24FF0FF3200927A687221084878
:1015BC0001F00CFB0346FB75FB7D002B02D04FF0BA
:1015CC00FF3300E03B6818461837BD4680BD00BFAE
:1015DC009000002080B582B000AF78607868FEF78C
:1015EC00AFFD03469AB24FF0FF337968034802F01F
:1015FC00FDFF00BF0837BD4680BD00BFE4000020E2
:10160C0080B483B000AF0346FB80FB88012B02D172
:10161C00034B01221A7000BF0C37BD4680BC7047CB
:10162C003802002080B59EB000AF00237B6700F02D
:10163C0051FD0346FB660023BB6600F0F3FC00F093
:10164C00A9F900F059FA00F0F5F900F027FAA648CC
:10165C00FFF7C0FF002387F8733097F97330002B26
:10166C002DDB97F873309BB25B0099B24FF0FF33D0
:10167C0003229E4801F010FE034687F8673097F866
:10168C006730002B15D17B6F01337B6797F8733074
:10169C0038467A6F964903F053FA3B461846FEF7E4
:1016AC004FFD03469AB239464FF0FF33914802F092
:1016BC009DFF97F87330013387F87330CDE78E4870
:1016CC00FEF797FD0346012B0CBF01230023DBB271
:1016DC00002B06D08948FFF77DFF642000F004FD45
:1016EC0005E08748FFF776FF642000F0FDFC012140
:1016FC008148FEF782FF0346002B06D08148FFF796
:10170C0069FF642000F0F0FC05E07F48FFF762FF02
:10171C00642000F0E9FC7D4B1B78DBB2012B0CBF85
:10172C0001230023DBB2002B07D0062000F025FE9E
:10173C0000F052FA754B00221A70754B1B68012B86
:10174C0003D0744B1B68012B0BD100F0C3FC024679
:10175C00714B1B68D21A714B1B689A4201D9012339
:10176C0000E00023002B01D000F0BEFA08216C48E9
:10177C0000F0A2FF0346012B0CBF01230023DBB2B8
:10178C00002B1CD000F0B0FA962000F0ADFC00F05D
:10179C006FFA6448FFF71EFF0821614800F08CFFC8
:1017AC000346012B0CBF01230023DBB2002B00D01E
:1017BC00F2E75D48FFF70EFF00F096FAE2E0102129
:1017CC00574800F079FF0346012B0CBF012300237F
:1017DC00DBB2002B1CD000F087FA962000F084FCC2
:1017EC0000F064FA5148FFF7F5FE10214C4800F068
:1017FC0063FF0346012B0CBF01230023DBB2002B3C
:10180C0000D0F2E74A48FFF7E5FE00F06DFAB9E0C8
:10181C00484B1B78DBB2012B0CBF01230023DBB23E
:10182C00002B08D04448FFF7D5FE00F021FA414BBD
:10183C0000221A70A6E0414B1B78DBB2012B0CBFC7
:10184C0001230023DBB2002B08D03D48FFF7C2FE7A
:10185C0000F02CFA394B00221A7093E0394B1B78AC
:10186C00DBB2012B0CBF01230023DBB2002B06D013
:10187C003548FFF7AFFE334B00221A7082E0334B32
:10188C001B78DBB2012B0CBF01230023DBB2002B36
:10189C0006D02F48FFF79EFE2C4B00221A7071E0E9
:1018AC002C4B1B78DBB2012B0CBF01230023DBB2CA
:1018BC00002B08D02848FFF78DFE00F015FA254BB9
:1018CC0000221A705EE0254B1B78DBB2012B0CBF9B
:1018DC0001230023DBB2002B44D02148FFF77AFE12
:1018EC001E4B00221A704DE0805200089000002020
:1018FC0098520008E40000202C010020AC52000893
:10190C00D452000800530008285300083802002065
:10191C004002002044020020480200200000002069
:10192C00000C0140605300087453000888530008F1
:10193C009C53000839020020B05300083A020020E2
:10194C00C45300083B020020D85300083C0200207E
:10195C00F45300083E020020105400083F020020FF
:10196C0020540008094B1B78DBB2012B0CBF012360
:10197C000023DBB2002B05D00548FFF72BFE034BF1
:10198C0000221A70062000F0EAFCC4E63D0200209A
:10199C003454000880B590B000AF07F1180328222A
:1019AC000021184602F0D8FF3B1D00221A605A6035
:1019BC009A60DA601A610123BB614FF48033FB61DA
:1019CC0000233B620123BB6202237B634FF4803311
:1019DC00BB634FF4E013FB6307F11803184602F0E6
:1019EC00A5F90346002B14BF01230023DBB2002B07
:1019FC0001D000F095F90F237B600223BB6000231C
:101A0C00FB604FF480633B6100237B613B1D022133
:101A1C00184602F00DFC0346002B14BF01230023D3
:101A2C00DBB2002B01D000F07BF900BF4037BD4684
:101A3C0080BD000080B500AF154B164A1A60144BE0
:101A4C00154A5A60124B00229A60114B0022DA6040
:101A5C000F4B4FF480421A610D4B00225A610C4B14
:101A6C0000229A610A4B0022DA61094B00221A62A9
:101A7C00074800F069FE0346002B14BF0123002326
:101A8C00DBB2002B01D000F04BF900BF80BD00BFD2
:101A9C009000002000540040A086010080B500AFEB
:101AAC00134B144A1A60124B4FF4E1325A60104B2C
:101ABC0000229A600E4B0022DA600D4B00221A6154
:101ACC000B4B0C225A610A4B00229A61084B0022E4
:101ADC00DA61074802F03AFD0346002B14BF0123DC
:101AEC000023DBB2002B01D000F01AF900BF80BD3F
:101AFC00E40000200044004080B588B000AF07F13E
:101B0C00100300221A605A609A60DA602E4B9B69AF
:101B1C002D4A43F0200393612B4B9B6903F0200368
:101B2C00FB60FB68284B9B69274A43F004039361D5
:101B3C00254B9B6903F00403BB60BB68224B9B697C
:101B4C00214A43F0080393611F4B9B6903F0080380
:101B5C007B607B6800224FF4C0511C4800F0C3FD31
:101B6C0001233B611A4B7B610023BB6107F110031E
:101B7C001946164800F01CFC4FF4C0533B6101237E
:101B8C007B610023BB610223FB6107F11003194643
:101B9C000E4800F00DFC18233B6100237B610023F1
:101BAC00BB6107F1100319460A4800F001FC002242
:101BBC000121062000F0B7FB062000F0D0FB00BF8F
:101BCC002037BD4680BD00BF001002400008014018
:101BDC0000002110000C014080B500AF1C48FEF73E
:101BEC0099FD0346002B31D01948FEF7B5FD03468D
:101BFC00013B052B26D801A252F823F0311C00081A
:101C0C00391C0008211C0008291C0008411C000874
:101C1C00491C00080F4B01221A7017E00E4B0122D1
:101C2C001A7013E00D4B01221A700FE00C4B0122BD
:101C3C001A700BE00B4B01221A7007E00A4B0122C1
:101C4C001A7003E0094B01221A7000BF00BF80BD5F
:101C5C002C010020390200203A0200203B02002017
:101C6C003C0200203E0200203D0200203F020020EA
:101C7C0080B500AF00F038F8962000F035FA084B2C
:101C8C0001221A6001224FF40061064800F02BFD7E
:101C9C0000F020FA0346044A136000BF80BD00BF69
:101CAC0040020020000801404802002080B500AF2F
:101CBC0000F01AF8962000F017FA084B01221A606F
:101CCC0001224FF48051064800F00DFD00F002FA9D
:101CDC000346044A136000BF80BD00BF44020020CD
:101CEC00000801404802002080B500AF094B0022DB
:101CFC001A60094B00221A6000224FF40061074859
:101D0C0000F0F1FC00224FF48051044800F0EBFC91
:101D1C0000BF80BD400200204402002000080140AA
:101D2C0080B400AF72B600BFFEE7000080B582B091
:101D3C0000AF786039607B68012B07D13B684FF6A8
:101D4C00FF72934202D10948FEF702FA7B68002B1E
:101D5C0007D13B684FF6FF72934202D10348FEF75E
:101D6C0027FA00BF0837BD4680BD00BF2C010020FC
:101D7C0080B500AF4FF6FF710120FFF7D7FF80BD94
:101D8C0080B500AF4FF6FF710020FFF7CFFF80BD8D
:101D9C0080B485B000AF154B9B69144A43F0010326
:101DAC009361124B9B6903F00103BB60BB680F4B43
:101DBC00DB690E4A43F08053D3610C4BDB6903F0B3
:101DCC0080537B607B680A4B5B68FB60FB6823F08D
:101DDC00E063FB60FB6843F00073FB60044AFB6844
:101DEC00536000BF1437BD4680BC704700100240E2
:101DFC000000014080B588B000AF786007F1100397
:101E0C0000221A605A609A60DA607B681B68154A77
:101E1C00934223D1144B9B69134A43F008039361FB
:101E2C00114B9B6903F00803FB60FB68C0233B610B
:101E3C0012237B610323FB6107F1100319460B4846
:101E4C0000F0B6FA084BDB69074A43F40013D36180
:101E5C00054BDB6903F40013BB60BB6800BF203784
:101E6C00BD4680BD0054004000100240000C0140F3
:101E7C0080B588B000AF786007F1100300221A60BB
:101E8C005A609A60DA607B681B681B4A93422FD1B8
:101E9C001A4BDB69194A43F40033D361174BDB69E6
:101EAC0003F40033FB60FB68144B9B69134A43F04B
:101EBC0004039361114B9B6903F00403BB60BB6883
:101ECC0004233B6102237B610323FB6107F11003B5
:101EDC0019460B4800F06CFA08233B6100237B6128
:101EEC000023BB6107F110031946054800F060FAA6
:101EFC0000BF2037BD4680BD0044004000100240AA
:101F0C000008014080B400AFFEE780B400AFFEE7EC
:101F1C0080B400AFFEE780B400AFFEE780B400AF42
:101F2C00FEE780B400AF00BFBD4680BC704780B4F4
:101F3C0000AF00BFBD4680BC704780B400AF00BF8F
:101F4C00BD4680BC704780B500AF00F0B1F800BF53
:101F5C0080BD80B500AF012000F0DEFB00BF80BD6E
:101F6C0080B586B000AF7860144A154BD31A7B61EC
:101F7C007B693B61134B1B68002B02D1114B124A3E
:101F8C001A60104B1A687B6813443A699A4207D25C
:101F9C0002F0B0FC03460C221A604FF0FF3309E04C
:101FAC00084B1B68FB60074B1A687B681344054A97
:101FBC001360FB6818461837BD4680BD00500020E2
:101FCC00000400004C0200206802002080B400AF26
:101FDC0000BFBD4680BC70470C480D490D4A00231C
:101FEC0002E0D458C4500433C4188C42F9D30A4AC2
:101FFC000A4C002301E013600432A242FBD3FFF72A
:10200C00E5FF02F07DFCFFF70DFB704700000020A0
:10201C0074000020C85400087400002064020020E2
:10202C00FEE7000080B500AF084B1B68074A43F081
:10203C0010031360032000F06BF90F2000F008F878
:10204C00FFF7A6FE0023184680BD00BF002002400B
:10205C0080B582B000AF7860124B1A68124B1B78B7
:10206C0019464FF47A73B3FBF1F3B2FBF3F3184652
:10207C0000F091F90346002B01D001230EE07B68A0
:10208C000F2B0AD8002279684FF0FF3000F04BF983
:10209C00064A7B681360002300E0012318460837CA
:1020AC00BD4680BD040000200C000020080000206C
:1020BC0080B400AF054B1B781A46054B1B681344C4
:1020CC00034A136000BFBD4680BC70470C00002063
:1020DC005002002080B400AF024B1B681846BD466E
:1020EC0080BC70475002002080B584B000AF78608F
:1020FC00FFF7F0FFB8607B68FB60FB68B3F1FF3F54
:10210C0005D00A4B1B781A46FB681344FB6000BFD2
:10211C00FFF7E0FF0246BB68D31AFA689A42F7D879
:10212C0000BF00BF1037BD4680BD00BF0C000020B3
:10213C0080B485B000AF78607B6803F00703FB6068
:10214C000C4BDB68BB60BA684FF6FF031340BB60F7
:10215C00FB681A02BB68134343F0BF6343F40033BC
:10216C00BB60044ABB68D36000BF1437BD4680BC5B
:10217C00704700BF00ED00E080B400AF044BDB689B
:10218C001B0A03F007031846BD4680BC704700BF0E
:10219C0000ED00E080B483B000AF0346FB7197F90B
:1021AC000730002B0BDBFB7903F01F02064997F974
:1021BC0007305B09012000FA02F241F8232000BF2E
:1021CC000C37BD4680BC704700E100E080B483B0A2
:1021DC0000AF0346FB7197F90730002B12DBFB793C
:1021EC0003F01F020A4997F907305B09012000FA36
:1021FC0002F2203341F82320BFF34F8F00BFBFF30F
:10220C006F8F00BF00BF0C37BD4680BC704700BF4E
:10221C0000E100E080B483B000AF03463960FB718D
:10222C0097F90730002B0ADB3B68DAB20C4997F9B7
:10223C0007301201D2B20B4483F800230AE03B684A
:10224C00DAB20849FB7903F00F03043B1201D2B256
:10225C000B441A7600BF0C37BD4680BC704700BFDC
:10226C0000E100E000ED00E080B489B000AFF86060
:10227C00B9607A60FB6803F00703FB61FB69C3F18B
:10228C000703042B28BF0423BB61FB690433062B13
:10229C0002D9FB69033B00E000237B614FF0FF3266
:1022AC00BB6902FA03F3DA43BB681A407B699A40B4
:1022BC004FF0FF317B6901FA03F3D9437B680B4084
:1022CC00134318462437BD4680BC704780B582B096
:1022DC0000AF78607B68013BB3F1807F01D30123B1
:1022EC000FE00A4A7B68013B53600F214FF0FF302F
:1022FC00FFF790FF054B00229A60044B07221A60EF
:10230C00002318460837BD4680BD00BF10E000E032
:10231C0080B582B000AF78607868FFF709FF00BF26
:10232C000837BD4680BD80B586B000AF0346B960A6
:10233C007A60FB7300237B61FFF71EFF78617A687C
:10234C00B9687869FFF790FF024697F90F3011468C
:10235C001846FFF75FFF00BF1837BD4680BD80B53C
:10236C0082B000AF0346FB7197F907301846FFF7B0
:10237C0011FF00BF0837BD4680BD80B582B000AFED
:10238C000346FB7197F907301846FFF71FFF00BF94
:10239C000837BD4680BD80B582B000AF78607868E4
:1023AC00FFF794FF034618460837BD4680BD000072
:1023BC0080B48BB000AF7860396000237B6200235F
:1023CC003B6269E101227B6A02FA03F3FB613B6821
:1023DC001B68FA691340BB61BA69FB699A4240F009
:1023EC0058813B685B689A4A93425ED0984A934204
:1023FC0075D8984A934258D0964A93426FD8964AC9
:10240C00934252D0944A934269D8944A93424CD006
:10241C00924A934263D8924A934246D0904A93424E
:10242C005DD8122B2AD8122B59D801A252F823F0BE
:10243C00B724000891240008A3240008E524000810
:10244C00EB240008EB240008EB240008EB24000824
:10245C00EB240008EB240008EB240008EB24000814
:10246C00EB240008EB240008EB240008EB24000804
:10247C00EB24000899240008AD240008794A934203
:10248C0013D02CE03B68DB683B6229E03B68DB68DF
:10249C0004333B6224E03B68DB6808333B621FE09B
:1024AC003B68DB680C333B621AE03B689B68002B93
:1024BC0002D104233B6213E03B689B68012B05D1DE
:1024CC0008233B627B68FA691A6109E008233B62C6
:1024DC007B68FA695A6103E000233B6200E000BFAD
:1024EC00BB69FF2B01D87B6801E07B6804337B61FF
:1024FC00BB69FF2B02D87B6A9B0002E07B6A083B1E
:10250C009B003B617B691A680F213B6901FA03F35D
:10251C00DB431A40396A3B6901FA03F31A437B69BE
:10252C001A603B685B6803F08053002B00F0B180AD
:10253C004D4B9B694C4A43F0010393614A4B9B6999
:10254C0003F00103BB60BB68484A7B6A9B080233FB
:10255C0052F82330FB607B6A03F003039B000F22CD
:10256C0002FA03F3DB43FA681340FB607B68404AD2
:10257C00934213D07B683F4A93420DD07B683E4A0E
:10258C00934207D07B683D4A934201D1032306E076
:10259C00042304E0022302E0012300E000237A6A12
:1025AC0002F0030292009340FA681343FB602F4938
:1025BC007B6A9B080233FA6841F823203B685B680E
:1025CC0003F48013002B06D02D4B9A682C49BB6961
:1025DC0013438B6006E02A4B9A68BB69DB4328499E
:1025EC0013408B603B685B6803F40013002B06D030
:1025FC00234BDA682249BB691343CB6006E0204BBE
:10260C00DA68BB69DB431E491340CB603B685B68EF
:10261C0003F40033002B06D0194B5A681849BB69D8
:10262C0013434B6006E0164B5A68BB69DB431449F5
:10263C0013404B603B685B6803F48033002B21D064
:10264C000F4B1A680E49BB6913430B6021E000BFA6
:10265C000000321000003110000022100000211088
:10266C000000121000001110001002400000014088
:10267C0000080140000C0140001001400014014012
:10268C00000401400B4B1A68BB69DB43094913403A
:10269C000B607B6A01337B623B681A687B6A22FAA7
:1026AC0003F3002B7FF48EAE00BF00BF2C37BD466A
:1026BC0080BC70470004014080B485B000AF7860E6
:1026CC000B467B807B689A687B881340002B02D07A
:1026DC000123FB7301E00023FB73FB7B18461437CB
:1026EC00BD4680BC704780B483B000AF78600B46A9
:1026FC007B8013467B707B78002B03D07A887B68B9
:10270C001A6103E07B881A047B681A6100BF0C37DE
:10271C00BD4680BC7047000080B582B000AF034658
:10272C00FB80084B5A69FB881340002B06D0054AE6
:10273C00FB885361FB881846FEF762FF00BF083721
:10274C00BD4680BD0004014080B584B000AF786008
:10275C007B68002B01D101232BE17B6893F83D3082
:10276C00DBB2002B06D17B68002283F83C20786812
:10277C00FFF740FB7B68242283F83D207B681B68B5
:10278C001A687B681B6822F001021A607B681B6860
:10279C001A687B681B6842F400421A607B681B68ED
:1027AC001A687B681B6822F400421A6001F088FEEC
:1027BC00F8607B685B68814A934207D8FB68804A63
:1027CC00934294BF01230023DBB206E0FB687D4AF1
:1027DC00934294BF01230023DBB2002B01D00123D1
:1027EC00E7E0FB68784AA2FB03239B0CBB607B6889
:1027FC001B685B6823F03F017B681B68BA680A435F
:10280C005A607B681B681B6A23F03F017B685B681E
:10281C006A4A934202D8BB68013309E0BB684FF4A3
:10282C00967202FB03F3694AA2FB03239B09013353
:10283C007A6812680B4313627B681B68DB6923F4AC
:10284C004F4222F0FF027B685B685C498B4219D8CF
:10285C00FB68591E7B685B685B00B1FBF3F3591C8A
:10286C0040F6FC730B40002B0AD0FB68591E7B68AA
:10287C005B685B00B1FBF3F30133C3F30B0351E073
:10288C0004234FE07B689B68002B11D1FB68581E1A
:10289C007B6859680B465B000B44B0FBF3F30133C8
:1028AC00C3F30B03002B0CBF01230023DBB212E09C
:1028BC00FB68581E7B6859680B469B000B449900BB
:1028CC000B44B0FBF3F30133C3F30B03002B0CBF2E
:1028DC0001230023DBB2002B01D0012322E07B6813
:1028EC009B68002B0ED1FB68581E7B6859680B4601
:1028FC005B000B44B0FBF3F30133C3F30B0343F462
:10290C0000430FE0FB68581E7B6859680B469B0020
:10291C000B4499000B44B0FBF3F30133C3F30B03EB
:10292C0043F44043796809681343CB617B681B68A7
:10293C001B6823F0C0017B68DA697B681B6A1A4349
:10294C007B681B680A431A607B681B689B6823F4CE
:10295C00034323F0FF037A6811697A68D268114344
:10296C007A6812680B4393607B681B68DB6823F002
:10297C00FF017B685A697B689B691A437B681B68FB
:10298C000A43DA607B681B681A687B681B6842F034
:10299C0001021A607B6800221A647B68202283F88B
:1029AC003D207B6800221A637B68002283F83E205E
:1029BC00002318461037BD4680BD00BFA08601001D
:1029CC007F841E00FF083D0083DE1B43D34D621045
:1029DC0080B588B002AFF8607A601A460B467B81EE
:1029EC0013463B81FFF776FB7861FB6893F83D302B
:1029FC00DBB2202B40F0E0807B690093192301228D
:102A0C007049F86800F05CFF0346002B01D00223EC
:102A1C00D3E0FB6893F83C30012B01D10223CCE0CE
:102A2C00FB68012283F83C20FB681B681B6803F0E1
:102A3C000103012B07D0FB681B681A68FB681B6835
:102A4C0042F001021A60FB681B681A68FB681B687D
:102A5C0022F400621A60FB68212283F83D20FB6897
:102A6C00102283F83E20FB6800221A64FB687A6807
:102A7C005A62FB683A895A85FB685B8D9AB2FB688F
:102A8C001A85FB68504ADA6279897B693A6AF86878
:102A9C0000F030FD0346002B01D001238DE0002314
:102AAC003B61FB681B685B693B61FB681B689B694E
:102ABC003B613B6966E07A69396AF86801F01AF89B
:102ACC000346002B0DD0FB681B6C042B07D1FB6855
:102ADC001B681A68FB681B6842F400721A600123B9
:102AEC006BE0FB685B6A1A78FB681B681A61FB6811
:102AFC005B6A5A1CFB685A62FB685B8D9BB2013B9C
:102B0C009AB2FB685A85FB681B8D013B9AB2FB6835
:102B1C001A85FB681B685B6903F00403042B1BD14B
:102B2C00FB681B8D002B17D0FB685B6A1A78FB685F
:102B3C001B681A61FB685B6A5A1CFB685A62FB686B
:102B4C005B8D9BB2013B9AB2FB685A85FB681B8D6F
:102B5C00013B9AB2FB681A857A69396AF86801F008
:102B6C0011F80346002B0DD0FB681B6C042B07D10E
:102B7C00FB681B681A68FB681B6842F400721A60D9
:102B8C0001231AE0FB681B8D002B94D1FB681B689A
:102B9C001A68FB681B6842F400721A60FB682022FA
:102BAC0083F83D20FB68002283F83E20FB6800225E
:102BBC0083F83C20002300E0022318461837BD465A
:102BCC0080BD00BF020010000000FFFF80B58CB07C
:102BDC0002AFF8607A601A460B467B8113463B8144
:102BEC0000233B62FFF776FA7862FB6893F83D307E
:102BFC00DBB2202B40F04B827B6A0093192301221D
:102C0C007F49F86800F05CFE0346002B01D00223DC
:102C1C003EE2FB6893F83C30012B01D1022337E2F2
:102C2C00FB68012283F83C20FB681B681B6803F0DF
:102C3C000103012B07D0FB681B681A68FB681B6833
:102C4C0042F001021A60FB681B681A68FB681B687B
:102C5C0022F400621A60FB68222283F83D20FB6894
:102C6C00102283F83E20FB6800221A64FB687A6805
:102C7C005A62FB683A895A85FB685B8D9AB2FB688D
:102C8C001A85FB685F4ADA6279897B6A3A6BF86865
:102C9C0000F0B2FC0346002B01D00123F8E1FB68E5
:102CAC001B8D002B13D10023FB61FB681B685B6938
:102CBC00FB61FB681B689B69FB61FB69FB681B681C
:102CCC001A68FB681B6842F400721A60CCE1FB685E
:102CDC001B8D012B1ED1FB681B681A68FB681B68D7
:102CEC0022F480621A6072B600BF0023BB61FB68DD
:102CFC001B685B69BB61FB681B689B69BB61BB693B
:102D0C00FB681B681A68FB681B6842F400721A6047
:102D1C0062B635E0FB681B8D022B1ED1FB681B686D
:102D2C001A68FB681B6842F400621A6072B600BF36
:102D3C0000237B61FB681B685B697B61FB681B681C
:102D4C009B697B617B69FB681B681A68FB681B6865
:102D5C0022F480621A6062B612E0FB681B681A6883
:102D6C00FB681B6842F480621A6000233B61FB68BD
:102D7C001B685B693B61FB681B689B693B613B693A
:102D8C0072E1FB681B8D032B00F21F81FB681B8D0E
:102D9C00012B23D17A6A396BF86800F03BFF0346AC
:102DAC00002B01D0012373E1FB681B681A69FB68D7
:102DBC005B6AD2B21A70FB685B6A5A1CFB685A6277
:102DCC00FB681B8D013B9AB2FB681A85FB685B8D17
:102DDC009BB2013B9AB2FB685A8545E1FB681B8D9F
:102DEC00022B52D17B6A00933B6B00220649F86898
:102DFC0000F066FD0346002B08D0012348E100BF1C
:102E0C00020010000000FFFF0400010072B600BFBA
:102E1C00FB681B681A68FB681B6842F400721A6036
:102E2C00FB681B681A69FB685B6AD2B21A70FB6894
:102E3C005B6A5A1CFB685A62FB681B8D013B9AB299
:102E4C00FB681A85FB685B8D9BB2013B9AB2FB68F1
:102E5C005A8562B600BFFB681B681A69FB685B6A1F
:102E6C00D2B21A70FB685B6A5A1CFB685A62FB6828
:102E7C001B8D013B9AB2FB681A85FB685B8D9BB27C
:102E8C00013B9AB2FB685A85EEE07B6A00933B6B80
:102E9C0000228149F86800F013FD0346002B01D095
:102EAC000123F5E0FB681B681A68FB681B6822F4B9
:102EBC0080621A6072B600BFFB681B681A69FB68F7
:102ECC005B6AD2B21A70FB685B6A5A1CFB685A6266
:102EDC00FB681B8D013B9AB2FB681A85FB685B8D06
:102EEC009BB2013B9AB2FB685A856C4B1B68DB08A2
:102EFC006B4AA2FB03231A0A13469B001344DA0005
:102F0C00D31A3B623B6A013B3B623B6A002B18D1F4
:102F1C00FB6800221A63FB68202283F83D20FB68C3
:102F2C00002283F83E20FB681B6C43F02002FB68F8
:102F3C001A6462B600BFFB68002283F83C200123B0
:102F4C00A6E0FB681B685B6903F00403042BD9D172
:102F5C00FB681B681A68FB681B6842F400721A60F5
:102F6C00FB681B681A69FB685B6AD2B21A70FB6853
:102F7C005B6A5A1CFB685A62FB681B8D013B9AB258
:102F8C00FB681A85FB685B8D9BB2013B9AB2FB68B0
:102F9C005A8562B600BFFB681B681A69FB685B6ADE
:102FAC00D2B21A70FB685B6A5A1CFB685A62FB68E7
:102FBC001B8D013B9AB2FB681A85FB685B8D9BB23B
:102FCC00013B9AB2FB685A854EE07A6A396BF86815
:102FDC0000F020FE0346002B01D0012358E0FB68D3
:102FEC001B681A69FB685B6AD2B21A70FB685B6A71
:102FFC005A1CFB685A62FB681B8D013B9AB2FB683A
:10300C001A85FB685B8D9BB2013B9AB2FB685A85B3
:10301C00FB681B685B6903F00403042B24D1FB6879
:10302C001B8D032B07D1FB681B681A68FB681B6898
:10303C0022F480621A60FB681B681A69FB685B6A81
:10304C00D2B21A70FB685B6A5A1CFB685A62FB6846
:10305C001B8D013B9AB2FB681A85FB685B8D9BB29A
:10306C00013B9AB2FB685A85FB681B8D002B7FF4E1
:10307C0088AEFB68202283F83D20FB68002283F891
:10308C003E20FB68002283F83C20002300E0022352
:10309C0018462837BD4680BD0400010004000020FE
:1030AC0089B5F81480B588B002AFF86008461146AF
:1030BC001A4603467B810B463B811346FB80FFF788
:1030CC0009F87861FB6893F83D30DBB2202B40F0B7
:1030DC00D9807B690093192301226D49F86800F0AF
:1030EC00EFFB0346002B01D00223CCE0FB6893F8E6
:1030FC003C30012B01D10223C5E0FB68012283F88F
:10310C003C20FB681B681B6803F00103012B07D0F4
:10311C00FB681B681A68FB681B6842F001021A60A6
:10312C00FB681B681A68FB681B6822F400621A6053
:10313C00FB68212283F83D20FB68402283F83E2067
:10314C00FB6800221A64FB683A6A5A62FB68BA8C04
:10315C005A85FB685B8D9AB2FB681A85FB684D4AF1
:10316C00DA62F8883A8979897B690193BB6A0093A2
:10317C000346F86800F00EFB0346002B52D00123E7
:10318C0081E07A69B96AF86800F0B4FC0346002B58
:10319C000DD0FB681B6C042B07D1FB681B681A68ED
:1031AC00FB681B6842F400721A6001236BE0FB6839
:1031BC005B6A1A78FB681B681A61FB685B6A5A1CAD
:1031CC00FB685A62FB681B8D013B9AB2FB681A853F
:1031DC00FB685B8D9BB2013B9AB2FB685A85FB681E
:1031EC001B685B6903F00403042B1BD1FB681B8D6C
:1031FC00002B17D0FB685B6A1A78FB681B681A6196
:10320C00FB685B6A5A1CFB685A62FB681B8D013BAE
:10321C009AB2FB681A85FB685B8D9BB2013B9AB234
:10322C00FB685A85FB681B8D002BAAD17A69B96A99
:10323C00F86800F0A7FC0346002B0DD0FB681B6C54
:10324C00042B07D1FB681B681A68FB681B6842F4E7
:10325C0000721A60012316E0FB681B681A68FB6891
:10326C001B6842F400721A60FB68202283F83D2030
:10327C00FB68002283F83E20FB68002283F83C2088
:10328C00002300E0022318461837BD4680BD00BF5E
:10329C00020010000000FFFF80B58AB002AFF8609A
:1032AC007A603B600B467B81FEF714FFF8610023CC
:1032BC00BB61FB6893F83D30DBB2202B40F01181F1
:1032CC00FB690093192301228849F86800F0F8FA89
:1032DC000346002B01D0022304E1FB6893F83C3039
:1032EC00012B01D10223FDE0FB68012283F83C2075
:1032FC00FB681B681B6803F00103012B07D0FB68FC
:10330C001B681A68FB681B6842F001021A60FB68B4
:10331C001B681A68FB681B6822F400621A60FB6861
:10332C00242283F83D20FB6800221A64FB68704A53
:10333C00DA62FB681B681A68FB681B6842F48072CF
:10334C001A60FB6900933B6800224FF00111F8688A
:10335C0000F0B6FA0346002B0DD0FB681B681B6807
:10336C0003F48073B3F5807F03D1FB684FF40072D4
:10337C001A640323B6E07B89DBB21A46FB681B6830
:10338C0002F0FE021A61FEF7A5FEF861FB681B68ED
:10339C005B6903F00203022B0CBF01230023DBB299
:1033AC00FB75FB681B685B6903F48063B3F5806F86
:1033BC000CBF01230023DBB2BB7525E0FEF78AFEB0
:1033CC000246FB69D31A3A689A4202D33B68002B37
:1033DC0003D1FB68A02283F83D20FB681B685B6966
:1033EC0003F00203022B0CBF01230023DBB2FB759D
:1033FC00FB681B685B6903F48063B3F5806F0CBFDB
:10340C0001230023DBB2BB75FB6893F83D30DBB2C4
:10341C00A02B05D0FB7D002B02D1BB7D002BCDD08A
:10342C00FB68202283F83D20FB681B685B6903F076
:10343C000203022B29D1FB681B681A68FB681B6806
:10344C0042F400721A6000233B61FB681B685B69E5
:10345C003B61FB681B689B693B613B69FB690093A3
:10346C00192301222149F86800F02AFA0346002B9F
:10347C0001D0012336E0FB68202283F83D20FB6855
:10348C00002283F83C2000232CE0FB681B681A68A0
:10349C00FB681B6842F400721A60FB681B686FF4CF
:1034AC0080625A61FB690093192301220F49F86865
:1034BC0000F006FA0346002B01D0012312E0BB6991
:1034CC000133BB61BA697B689A42FFF432AFFB6887
:1034DC00202283F83D20FB68002283F83C20012346
:1034EC0000E0022318462037BD4680BD02001000C4
:1034FC000000FFFF80B588B002AFF8607A603B60D7
:10350C000B467B81FB68DB6A7B617B69082B06D0F1
:10351C007B69012B03D07B6913F5803F08D1FB68D5
:10352C001B681A68FB681B6842F480721A600BE017
:10353C00FB681B6B122B07D1FB681B681A68FB68B6
:10354C001B6842F480721A603B6800937B6800220F
:10355C004FF00111F86800F0B3F90346002B0DD0C1
:10356C00FB681B681B6803F48073B3F5807F03D181
:10357C00FB684FF400721A64032335E0FB681B6987
:10358C00B3F5804F08D17B89DBB21A46FB681B6808
:10359C0002F0FE021A611BE07B89DB11DBB203F047
:1035AC000603DBB263F00F03DAB2FB681B681A6127
:1035BC003B687A680E49F86800F0FCF90346002B6A
:1035CC0001D0012310E07B89DAB2FB681B681A6119
:1035DC003B687A680749F86800F0ECF90346002B61
:1035EC0001D0012300E0002318461837BD4680BDEA
:1035FC00080001000200010080B588B002AFF8603D
:10360C007A603B600B467B81FB68DB6A7B61FB6805
:10361C001B681A68FB681B6842F480621A607B693D
:10362C00082B06D07B69012B03D07B6913F5803FF7
:10363C0008D1FB681B681A68FB681B6842F480722F
:10364C001A600BE0FB681B6B112B07D1FB681B6826
:10365C001A68FB681B6842F480721A603B6800931E
:10366C007B6800224FF00111F86800F029F903463D
:10367C00002B0DD0FB681B681B6803F48073B3F53B
:10368C00807F03D1FB684FF400721A64032379E046
:10369C00FB681B69B3F5804F08D17B89DBB243F023
:1036AC000103DAB2FB681B681A615FE07B89DB11EE
:1036BC00DBB203F00603DBB263F00F03DAB2FB6894
:1036CC001B681A613B687A683049F86800F072F937
:1036DC000346002B01D0012354E07B89DAB2FB684E
:1036EC001B681A613B687A682949F86800F062F92E
:1036FC000346002B01D0012344E000233B61FB680F
:10370C001B685B693B61FB681B689B693B613B69A0
:10371C00FB681B681A68FB681B6842F480721A60AD
:10372C003B6800937B6800224FF00111F86800F0B1
:10373C00C7F80346002B0DD0FB681B681B6803F40D
:10374C008073B3F5807F03D1FB684FF400721A6469
:10375C00032317E07B89DB11DBB203F00603DBB23A
:10376C0063F00E03DAB2FB681B681A613B687A6877
:10377C000749F86800F01EF90346002B01D001231D
:10378C0000E0002318461837BD4680BD0800010034
:10379C000200010080B588B002AFF86008461146FF
:1037AC001A4603467B810B463B811346FB80FB6824
:1037BC001B681A68FB681B6842F480721A607B6A8B
:1037CC0000933B6A00224FF00111F86800F078F882
:1037DC000346002B0DD0FB681B681B6803F4807339
:1037EC00B3F5807F03D1FB684FF400721A64032396
:1037FC005FE07B89DBB21A46FB681B6802F0FE02B5
:10380C001A617B6A3A6A2D49F86800F0D3F80346CE
:10381C00002B01D001234CE000237B61FB681B686B
:10382C005B697B61FB681B689B697B617B697A6A5E
:10383C00396AF86800F05EF90346002B0DD0FB687E
:10384C001B6C042B07D1FB681B681A68FB681B6890
:10385C0042F400721A6001232BE0FB88012B05D186
:10386C003B89DAB2FB681B681A6121E03B891B0AB1
:10387C009BB2DAB2FB681B681A617A6A396AF8681B
:10388C0000F038F90346002B0DD0FB681B6C042BA1
:10389C0007D1FB681B681A68FB681B6842F400724E
:1038AC001A60012305E03B89DAB2FB681B681A61D8
:1038BC00002318461837BD4680BD00BF020001002A
:1038CC0080B584B000AFF860B9603B601346FB7103
:1038DC0048E03B68B3F1FF3F44D0FEF7FBFB0246E8
:1038EC00BB69D31A3A689A4202D33B68002B39D190
:1038FC00BB681B0CDBB2012B0DD1FB681B685B6931
:10390C00DA43BB6813409BB2002B0CBF012300238E
:10391C00DBB21A460CE0FB681B689B69DA43BB6898
:10392C0013409BB2002B0CBF01230023DBB21A46C1
:10393C00FB799A4216D1FB6800221A63FB6820229D
:10394C0083F83D20FB68002283F83E20FB681B6C4B
:10395C0043F02002FB681A64FB68002283F83C20C9
:10396C00012323E0BB681B0CDBB2012B0DD1FB68E0
:10397C001B685B69DA43BB6813409BB2002B0CBF1E
:10398C0001230023DBB21A460CE0FB681B689B6921
:10399C00DA43BB6813409BB2002B0CBF01230023FE
:1039AC00DBB21A46FB799A4293D0002318461037A3
:1039BC00BD4680BD80B584B000AFF860B9607A6058
:1039CC003B6071E0FB681B685B6903F48063B3F5D3
:1039DC00806F23D1FB681B681A68FB681B6842F474
:1039EC0000721A60FB681B686FF480625A61FB6896
:1039FC0000221A63FB68202283F83D20FB6800221A
:103A0C0083F83E20FB681B6C43F00402FB681A64CD
:103A1C00FB68002283F83C20012367E07B68B3F14C
:103A2C00FF3F41D0FEF756FB02463B68D31A7A683B
:103A3C009A4202D37B68002B36D1BB681B0CDBB2DD
:103A4C00012B0CD1FB681B685B69DA43BB68134024
:103A5C009BB2002B14BF01230023DBB20BE0FB68ED
:103A6C001B689B69DA43BB6813409BB2002B14BFE5
:103A7C0001230023DBB2002B16D0FB6800221A6353
:103A8C00FB68202283F83D20FB68002283F83E204F
:103A9C00FB681B6C43F02002FB681A64FB68002275
:103AAC0083F83C20012321E0BB681B0CDBB2012B0B
:103ABC000CD1FB681B685B69DA43BB6813409BB293
:103ACC00002B14BF01230023DBB20BE0FB681B6847
:103ADC009B69DA43BB6813409BB2002B14BF0123D4
:103AEC000023DBB2002B7FF46DAF00231846103798
:103AFC00BD4680BD80B584B000AFF860B9607A6017
:103B0C0034E0F86800F0E3F80346002B01D0012301
:103B1C0034E0BB68B3F1FF3F28D0FEF7DBFA024676
:103B2C007B68D31ABA689A4202D3BB68002B1DD1AA
:103B3C00FB681B685B6903F08003802B16D0FB6865
:103B4C0000221A63FB68202283F83D20FB680022C8
:103B5C0083F83E20FB681B6C43F02002FB681A6460
:103B6C00FB68002283F83C20012307E0FB681B68FC
:103B7C005B6903F08003802BC3D1002318461037F8
:103B8C00BD4680BD80B584B000AFF860B9607A6086
:103B9C0034E0F86800F09BF80346002B01D00123B9
:103BAC0034E0BB68B3F1FF3F28D0FEF793FA02462E
:103BBC007B68D31ABA689A4202D3BB68002B1DD11A
:103BCC00FB681B685B6903F00403042B16D0FB68CD
:103BDC0000221A63FB68202283F83D20FB68002238
:103BEC0083F83E20FB681B6C43F02002FB681A64D0
:103BFC00FB68002283F83C20012307E0FB681B686C
:103C0C005B6903F00403042BC3D10023184610375F
:103C1C00BD4680BD80B584B000AFF860B9607A60F5
:103C2C0049E0FB681B685B6903F01003102B19D18A
:103C3C00FB681B686FF010025A61FB6800221A6364
:103C4C00FB68202283F83D20FB68002283F83E208D
:103C5C00FB681A6CFB681A64FB68002283F83C2032
:103C6C00012330E0FEF736FA02467B68D31ABA68B5
:103C7C009A4202D3BB68002B1DD1FB681B685B69A1
:103C8C0003F04003402B16D0FB6800221A63FB683C
:103C9C00202283F83D20FB68002283F83E20FB683D
:103CAC001B6C43F02002FB681A64FB68002283F84B
:103CBC003C20012307E0FB681B685B6903F04003B1
:103CCC00402BAED1002318461037BD4680BD80B4C2
:103CDC0083B000AF78607B681B685B6903F480631A
:103CEC00B3F5806F1BD17B681B686FF480625A61DF
:103CFC007B6800221A637B68202283F83D207B6856
:103D0C00002283F83E207B681B6C43F004027B6826
:103D1C001A647B68002283F83C20012300E0002316
:103D2C0018460C37BD4680BC7047000080B586B085
:103D3C0000AF78607B68002B01D1012372E27B68B5
:103D4C001B6803F00103002B00F08780924B5B682B
:103D5C0003F00C03042B0CD08F4B5B6803F00C03AB
:103D6C00082B12D18C4B5B6803F48033B3F5803F86
:103D7C000BD1894B1B6803F40033002B6CD07B6890
:103D8C005B68002B68D101234CE27B685B68B3F560
:103D9C00803F06D1804B1B687F4A43F4803313600D
:103DAC002EE07B685B68002B0CD17B4B1B687A4A3E
:103DBC0023F480331360784B1B68774A23F48023F9
:103DCC0013601DE07B685B68B3F5A02F0CD1724BC0
:103DDC001B68714A43F4802313606F4B1B686E4A57
:103DEC0043F4803313600BE06B4B1B686A4A23F47B
:103DFC0080331360684B1B68674A23F4802313607D
:103E0C007B685B68002B13D0FEF764F9386108E01F
:103E1C00FEF760F902463B69D31A642B01D90323E0
:103E2C0000E25D4B1B6803F40033002BF0D014E070
:103E3C00FEF750F9386108E0FEF74CF902463B6991
:103E4C00D31A642B01D90323ECE1534B1B6803F405
:103E5C000033002BF0D100E000BF7B681B6803F03F
:103E6C000203002B63D04C4B5B6803F00C03002B5C
:103E7C000BD0494B5B6803F00C03082B1CD1464B51
:103E8C005B6803F48033002B16D1434B1B6803F0A3
:103E9C000203002B05D07B681B69012B01D0012389
:103EAC00C0E13D4B1B6823F0F8027B685B69DB00CB
:103EBC00394913430B603AE07B681B69002B20D017
:103ECC00364B01221A60FEF705F9386108E0FEF75F
:103EDC0001F902463B69D31A022B01D90323A1E154
:103EEC002D4B1B6803F00203002BF0D02A4B1B68F0
:103EFC0023F0F8027B685B69DB00274913430B60F6
:103F0C0015E0264B00221A60FEF7E4F8386108E051
:103F1C00FEF7E0F802463B69D31A022B01D90323C2
:103F2C0080E11D4B1B6803F00203002BF0D17B6872
:103F3C001B6803F00803002B3AD07B689B69002BAD
:103F4C0019D0174B01221A60FEF7C4F8386108E04B
:103F5C00FEF7C0F802463B69D31A022B01D90323A2
:103F6C0060E10D4B5B6A03F00203002BF0D00120E3
:103F7C0000F0CEFA1CE00A4B00221A60FEF7AAF8F9
:103F8C0038610FE0FEF7A6F802463B69D31A022B04
:103F9C0008D9032346E100BF001002400000424252
:103FAC0080044242924B5B6A03F00203002BE9D17E
:103FBC007B681B6803F00403002B00F0A680002331
:103FCC00FB758B4BDB6903F08053002B0DD1884BB9
:103FDC00DB69874A43F08053D361854BDB6903F07F
:103FEC008053BB60BB680123FB75824B1B6803F4D9
:103FFC008073002B18D17F4B1B687E4A43F480736F
:10400C001360FEF767F8386108E0FEF763F80246C4
:10401C003B69D31A642B01D9032303E1754B1B684D
:10402C0003F48073002BF0D07B68DB68012B06D186
:10403C006F4B1B6A6E4A43F0010313622DE07B68E1
:10404C00DB68002B0CD16A4B1B6A694A23F0010315
:10405C001362674B1B6A664A23F0040313621CE06D
:10406C007B68DB68052B0CD1614B1B6A604A43F003
:10407C00040313625E4B1B6A5D4A43F00103136237
:10408C000BE05B4B1B6A5A4A23F001031362584B3B
:10409C001B6A574A23F0040313627B68DB68002B0E
:1040AC0015D0FEF717F838610AE0FEF713F8024650
:1040BC003B69D31A41F28832934201D90323B1E010
:1040CC004B4B1B6A03F00203002BEED014E0FEF7FF
:1040DC0001F838610AE0FDF7FDFF02463B69D31A8F
:1040EC0041F28832934201D903239BE0404B1B6A77
:1040FC0003F00203002BEED1FB7D012B05D13C4BD1
:10410C00DB693B4A23F08053D3617B68DB69002B6E
:10411C0000F08780364B5B6803F00C03082B61D0F2
:10412C007B68DB69022B46D1334B00221A60FDF70A
:10413C00D1FF386108E0FDF7CDFF02463B69D31A89
:10414C00022B01D903236DE0294B1B6803F000738C
:10415C00002BF0D17B681B6AB3F5803F08D1244B50
:10416C005B6823F400327B689B68214913434B60E6
:10417C001F4B5B6823F474127B68196A7B685B6A5B
:10418C000B431B4913434B601B4B01221A60FDF779
:10419C00A1FF386108E0FDF79DFF02463B69D31A89
:1041AC00022B01D903233DE0114B1B6803F0007374
:1041BC00002BF0D035E0104B00221A60FDF78AFF7F
:1041CC00386108E0FDF786FF02463B69D31A022BE3
:1041DC0001D9032326E0064B1B6803F00073002B68
:1041EC00F0D11EE07B68DB69012B07D1012319E0BC
:1041FC000010024000700040600042420B4B5B68B4
:10420C00FB60FB6803F480327B681B6A9A4206D120
:10421C00FB6803F470127B685B6A9A4201D001233D
:10422C0000E0002318461837BD4680BD0010024040
:10423C0080B584B000AF786039607B68002B01D109
:10424C000123D0E06A4B1B6803F007033A689A42DB
:10425C0010D9674B1B6823F0070265493B68134371
:10426C000B60634B1B6803F007033A689A4201D05A
:10427C000123B8E07B681B6803F00203002B20D0FD
:10428C007B681B6803F00403002B05D0594B5B685B
:10429C00584A43F4E06353607B681B6803F00803DF
:1042AC00002B05D0534B5B68524A43F46053536068
:1042BC00504B5B6823F0F0027B689B684D491343BD
:1042CC004B607B681B6803F00103002B40D07B68BC
:1042DC005B68012B07D1474B1B6803F40033002BA1
:1042EC0015D101237FE07B685B68022B07D1414B22
:1042FC001B6803F00073002B09D1012373E03D4BC5
:10430C001B6803F00203002B01D101236BE0394B36
:10431C005B6823F003027B685B68364913434B6090
:10432C00FDF7D8FEF8600AE0FDF7D4FE0246FB6804
:10433C00D31A41F28832934201D9032353E02D4B17
:10434C005B6803F00C027B685B689B009A42EBD1C4
:10435C00274B1B6803F007033A689A4210D2244B90
:10436C001B6823F0070222493B6813430B60204B68
:10437C001B6803F007033A689A4201D0012332E02C
:10438C007B681B6803F00403002B08D0194B5B6897
:10439C0023F4E0627B68DB68164913434B607B684F
:1043AC001B6803F00803002B09D0124B5B6823F445
:1043BC0060527B681B69DB000E4913434B6000F0B5
:1043CC0021F802460B4B5B681B0903F00F030A49EB
:1043DC00CB5C22FA03F3094A1360094B1B6818469D
:1043EC00FDF736FE002318461037BD4680BD00BFD2
:1043FC000020024000100240585400080400002025
:10440C000800002080B487B000AF0023FB600023BD
:10441C00BB6000237B6100237B6000233B611E4B50
:10442C005B68FB60FB6803F00C03042B02D0082BC9
:10443C0003D027E0194B3B6127E0FB689B0C03F092
:10444C000F03174AD35C7B60FB6803F48033002BAB
:10445C0010D0114B5B685B0C03F00103114AD35C69
:10446C00BB607B680D4A03FB02F2BB68B2FBF3F343
:10447C007B6104E07B680C4A02FB03F37B617B6984
:10448C003B6102E0054B3B6100BF3B6918461C37A2
:10449C00BD4680BC704700BF0010024000127A007D
:1044AC00705400088054000800093D0080B400AF2F
:1044BC00024B1B681846BD4680BC704704000020A8
:1044CC0080B500AFFFF7F2FF0246054B5B681B0A95
:1044DC0003F007030349CB5C22FA03F3184680BDB3
:1044EC00001002406854000880B500AFFFF7DEFFF3
:1044FC000246054B5B68DB0A03F007030349CB5C00
:10450C0022FA03F3184680BD0010024068540008DC
:10451C0080B485B000AF78600A4B1B680A4AA2FBD6
:10452C0003235B0A7A6802FB03F3FB6000BFFB68A2
:10453C005A1EFA60002BF9D100BF00BF1437BD46DC
:10454C0080BC704704000020D34D621080B582B04F
:10455C0000AF78607B68002B01D1012342E07B68BF
:10456C0093F84130DBB2002B06D17B68002283F834
:10457C0040207868FDF77CFC7B68242283F841207E
:10458C007B681B68DA687B681B6822F40052DA606F
:10459C00786800F01DF97B681B681A697B681B68DA
:1045AC0022F490421A617B681B685A697B681B680D
:1045BC0022F02A025A617B681B68DA687B681B68E8
:1045CC0042F40052DA607B6800225A647B68202235
:1045DC0083F841207B68202283F842207B680022EC
:1045EC005A63002318460837BD4680BD80B58AB093
:1045FC0002AFF860B9603B601346FB8000237B611F
:10460C00FB6893F84130DBB2202B6DD1BB68002BDB
:10461C0002D0FB88002B01D1012366E0FB6800224D
:10462C005A64FB68212283F84120FDF753FD786121
:10463C00FB68FA889A84FB68FA88DA84FB689B68C2
:10464C00B3F5805F08D1FB681B69002B04D10023F4
:10465C00FB61BB68BB6103E0BB68FB610023BB6112
:10466C002AE03B6800937B6900228021F86800F007
:10467C0040F80346002B01D0032336E0FB69002BE6
:10468C000BD1BB691B881A46FB681B68C2F3080276
:10469C005A60BB690233BB6107E0FB691A78FB689F
:1046AC001B685A60FB690133FB61FB68DB8C9BB2B6
:1046BC00013B9AB2FB68DA84FB68DB8C9BB2002B63
:1046CC00CFD13B6800937B6900224021F86800F051
:1046DC0010F80346002B01D0032306E0FB682022D0
:1046EC0083F84120002300E0022318462037BD4602
:1046FC0080BD80B590B000AFF860B9603B601346E8
:10470C00FB7150E0BB6CB3F1FF3F4CD0BB6C002B8A
:10471C0007D0FDF7DFFC02463B68D31ABA6C9A420D
:10472C0041D2FB681B680C33BB62BB6A53E8003F89
:10473C007B627B6A23F4D073FB63FB681B680C33CE
:10474C00FA6B7A633B63396B7A6B41E80023FB624B
:10475C00FB6A002BE5D1FB681B6814337B617B691A
:10476C0053E8003F3B613B6923F00103BB63FB68EB
:10477C001B681433BA6B3A62FB61F9693A6A41E817
:10478C000023BB61BB69002BE5D1FB68202283F8B9
:10479C004120FB68202283F84220FB68002283F82A
:1047AC00402003230FE0FB681B681A68BB681340AA
:1047BC00BA689A420CBF01230023DBB21A46FB797C
:1047CC009A429FD0002318464037BD4680BD00005A
:1047DC0080B584B000AF78607B681B681B6923F4DC
:1047EC0040517B68DA687B681B680A431A617B68F6
:1047FC009A687B681B691A437B685B691343BB60CF
:10480C007B681B68DB6823F4B05323F00C037A68D5
:10481C001268B9680B43D3607B681B685B6923F42F
:10482C0040717B689A697B681B680A435A617B6894
:10483C001B682C4A934203D1FFF756FEF86002E046
:10484C00FFF73EFEF860FA6813469B0013449A008B
:10485C001A447B685B689B00B2FBF3F3224AA2FB11
:10486C0003235B091901FA6813469B0013449A0051
:10487C001A447B685B689B00B2FBF3F21A4BA3FBF8
:10488C0002035B09642000FB03F3D31A1B013233D0
:10489C00154AA2FB03235B0903F0F0031944FA68E1
:1048AC0013469B0013449A001A447B685B689B0078
:1048BC00B2FBF3F20C4BA3FB02035B09642000FB7D
:1048CC0003F3D31A1B013233074AA2FB03235B0900
:1048DC0003F00F027B681B680A449A6000BF103714
:1048EC00BD4680BD003801401F85EB5100F000B87B
:1048FC0000F02AB8014B1868704700BF1000002068
:10490C0070B500260C4D0D4C641BA410A64209D1A9
:10491C0000F0A4FC00260A4D0A4C641BA410A6420D
:10492C0005D170BD55F8043B98470136EEE755F8B4
:10493C00043B98470136F2E7B8540008B854000815
:10494C00B8540008C0540008024B0146186800F027
:10495C000BB800BF1000002003460244934200D164
:10496C00704703F8011BF9E738B50546002940D01C
:10497C0051F8043C0C1F002BB8BFE41800F000F9F0
:10498C001C4A136833B9636014602846BDE838408C
:10499C0000F0FCB8A34208D9206821188B4201BF53
:1049AC0019685B6809182160EDE71A465B680BB162
:1049BC00A342FAD911685018A0420BD120680144C7
:1049CC00501883421160E0D118685B680144116093
:1049DC005360DAE702D90C232B60D6E72068211844
:1049EC008B4201BF19685B680918216063605460D1
:1049FC00CBE738BD5402002070B50E4E0C46316822
:104A0C00054611B900F08CF830602146284600F0BC
:104A1C0087F8431C0AD0C41C24F00304A04207D01E
:104A2C00211A284600F07CF8013001D14FF0FF34F8
:104A3C00204670BD580200202DE9F041CD1C25F018
:104A4C00030508350C2D38BF0C25002D074601DB5E
:104A5C00A94205D90C2300263B603046BDE8F08105
:104A6C002E4E00F08DF833681C4634BB2946384670
:104A7C00FFF7C2FF431C04464DD134682646002E76
:104A8C0040D123683146384604EB030800F048F85F
:104A9C0080453AD1216803356D1A25F00305083598
:104AAC000C2D38BF0C2538462946FFF7A5FF0130E1
:104ABC002BD023682B4423600EE02268521B1ED49B
:104ACC000B2A16D96119A342256018BF5960636877
:104ADC0008BF316062514B60384604F10B0600F0A0
:104AEC0055F826F00706231DF21AB6D09B1BA350CF
:104AFC00B3E76268A3420CBF32605A60ECE723460E
:104B0C006468B2E734467668B9E70C2338463B60F4
:104B1C0000F03CF8A1E72560DEE700BF540200205E
:104B2C0038B50023054D044608462B60FDF718FAEE
:104B3C00431C02D12B6803B1236038BD5C020020FA
:104B4C000EB46FF0004100B59CB01DAB0290069006
:104B5C00079104910848094953F8042B0591006802
:104B6C0002A9019300F074F80022029B1A701CB089
:104B7C005DF804EB03B07047100000200802FFFF43
:104B8C00014800F0FBBA00BF60020020014800F0B1
:104B9C00F6BA00BF600200202DE9F0478E6882460D
:104BAC009E420C4690461F4638D88A8912F4906F64
:104BBC0032D0256809690133A5EB010965694B44BD
:104BCC0005EB450505EBD5756D109D4238BF1D46AF
:104BDC00530531D52946FFF72FFF064650B90C2354
:104BEC004FF0FF30CAF80030A38943F04003A38193
:104BFC00BDE8F0874A46216900F0D0FAA38923F476
:104C0C00906343F08003A38126614E4426603E46A8
:104C1C006561A5EB0905A560BE4200D93E4632464A
:104C2C004146206800F0C8FAA36800209B1BA360D3
:104C3C00236833442360DBE72A4600F0D7FA0646A4
:104C4C000028E1D150462169FFF78EFEC7E700002E
:104C5C002DE9F04F98468B8907461B060D461446E6
:104C6C009DB00ED50B6963B94021FFF7E5FE2860B6
:104C7C00286120B90C233B604FF0FF30D1E040237A
:104C8C006B610023099320238DF8293030234FF0DA
:104C9C000109CDF80C80DFF8A4818DF82A30234669
:104CAC009A4613F8012B0AB1252AF9D1BAEB040B59
:104CBC000BD05B46224629463846FFF76DFF013084
:104CCC0000F0AA80099A5A4409929AF80030002BF5
:104CDC0000F0A28000234FF0FF32CDE905230AF14A
:104CEC00010A049307938DF853301A935446052206
:104CFC0014F8011B514800F043FA049AD8B9D006B5
:104D0C0044BF20238DF85330110744BF2B238DF85B
:104D1C0053309AF800302A2B15D0544600204FF00F
:104D2C000A0C079A214611F8013B303B092B4ED94E
:104D3C00B0B1079214E0A0EB080309FA03F3134394
:104D4C00A2460493D2E7039B191D1B680391002B09
:104D5C00BBBF5B4242F0020207930793B8BF0492B9
:104D6C0023782E2B0CD163782A2B35D1039B02345C
:104D7C001A1D1B680392002BB8BF4FF0FF3305932D
:104D8C00DFF8BCA003225046217800F0F9F940B1BD
:104D9C004023A0EB0A0003FA00F0049B0134034308
:104DAC00049314F8011B062226488DF8281000F0F5
:104DBC00E7F9002838D0244B1BBB039B073323F0A7
:104DCC00070308330393099B3344099367E70C46A5
:104DDC0001200CFB0232A5E700234FF00A0C194608
:104DEC0001340593204610F8012B303A092A03D9D7
:104DFC00002BC5D00591C3E7044601230CFB012110
:104E0C00F0E703AB00932A463846104B04A9AFF3E6
:104E1C000080421C0646D6D1AB895B063FF52CAF11
:104E2C0009981DB0BDE8F08F03AB00932A463846B5
:104E3C00064B04A900F07CF8EBE700BF8254000895
:104E4C00885400088C54000800000000A54B000892
:104E5C002DE9F047164699468A680B690746934236
:104E6C00B8BF1346336091F843200C46DDF8208020
:104E7C000AB1013333602368990642BF33680233A9
:104E8C003360256815F0060506D104F1190AE368AC
:104E9C0032689B1AAB4228DC94F84320131E22681C
:104EAC0018BF012392062DD44946384604F143021B
:104EBC00C047013020D02368E56803F00603042BBB
:104ECC0018BF002532684FF00006A36808BFAD1A62
:104EDC00226908BF25EAE5759342C4BF9B1AED18F9
:104EEC001A34B5421AD1002008E001235246494633
:104EFC003846C047013003D14FF0FF30BDE8F08792
:104F0C000135C4E73020E11881F843005A1C94F8AD
:104F1C0045102244023382F84310C5E70123224690
:104F2C0049463846C0470130E6D00136D9E7000083
:104F3C002DE9FF470F7E9146782F80460C469A4606
:104F4C000C9D01F1430207D8622F0AD8002F00F004
:104F5C00D980582F00F0A48004F1420584F84270E7
:104F6C003AE0A7F16303152BF6D801A151F823F011
:104F7C00D54F0008E94F0008654F0008654F000841
:104F8C00654F0008654F0008E94F0008654F0008A1
:104F9C00654F0008654F0008654F0008F750000882
:104FAC0019500008D9500008654F0008654F0008DB
:104FBC0019510008654F000819500008654F00088A
:104FCC00654F0008E15000082B681A1D1B682A6009
:104FDC0004F1420584F842300123A4E020682968DA
:104FEC00060601F104030AD50E682B60002E03DAC5
:104FFC002D23764284F843300A235E4819E00E686C
:10500C0010F0400F2B6018BF36B2EFE72B6820680A
:10501C00191D2960010601D51E6802E04606FBD564
:10502C001E886F2F0CBF08230A235248002184F8D6
:10503C0043106568002DA8BF2168A560A4BF21F0AE
:10504C00040121600EB9002D4DD01546B6FBF3F1CD
:10505C0003FB1167C75D05F8017D3746BB420E4661
:10506C00F4D9082B0BD12368DE0708D523696168B6
:10507C009942DEBF302305F8013C05F1FF35521B88
:10508C0022614B4621464046CDF800A003AAFFF70B
:10509C00DFFE01304CD14FF0FF3004B0BDE8F0879B
:1050AC00344881F845702968236851F8046B2960ED
:1050BC001D0614D5DF0744BF43F0200323601EB93F
:1050CC00236823F0200323601023AFE7236843F009
:1050DC00200323607823284884F84530E3E75906F9
:1050EC0048BFB6B2E6E71546BBE72B682668181D25
:1050FC006169286035061B6801D5196002E07006ED
:10510C00FBD51980002315462361BAE72B680021D3
:10511C001A1D2A601D686268284600F031F808B133
:10512C00401B606063682361002384F84330A8E768
:10513C002A46494640462369D0470130ABD0236804
:10514C009B0713D4E068039B9842B8BF1846A4E7AA
:10515C000123324649464046D04701309BD00135A9
:10516C00E36803995B1AAB42F2DCEBE7002504F130
:10517C001906F5E793540008A454000870477047CB
:10518C00034610B5C9B202449342184601D100201F
:10519C0003E0047801338C42F6D110BD0A449142ED
:1051AC0000F1FF3300D1704710B511F8014B91425B
:1051BC0003F8014FF9D110BD884210B501EB020480
:1051CC0002D98442234607D8431EA14208D011F8C5
:1051DC00012B03F8012FF8E7014602448A4200D163
:1051EC0010BD13F8014D02F8014DF7E72DE9F04120
:1051FC00804614460E4621B91146BDE8F041FFF732
:10520C001BBC2AB9FFF7B0FB25462846BDE8F08148
:10521C0000F01BF88442074602D8B4EB500F12D8AA
:10522C0021464046FFF708FC05460028EDD0BC425D
:10523C002246314628BF3A46FFF7B0FF314640467A
:10524C00FFF792FBE1E73546DFE751F8043C181F06
:10525C00002BBCBF0B58C01870470000F8B500BF3E
:10526C00F8BC08BC9E467047F8B500BFF8BC08BC3B
:04527C009E46704793
:10528000205363616E6E696E672049324320646506
:1052900076696365730A000020446576696365205A
:1052A00025643A203078255820200A000A204150F1
:1052B00044533939363020696E697469616C697A92
:1052C0006564207375636365737366756C6C790AC6
:1052D000000000000A202E2E4552524F522E2E2042
:1052E0004661696C656420746F20696E69746961D8
:1052F0006C697A652041504453393936300A0000D0
:10530000204765737475726520646574656374699C
:105310006F6E206D6F64652061637469766174657A
:1053200064200A0A00000000202E2E4552524F52DF
:105330002E2E20436F756C64206E6F742073746121
:105340007274206765737475726520646574656333
:1053500074696F6E206D6F64652E0A0A000000008C
:105360000A20555020425554544F4E204F4E200A8B
:10537000000000000A20555020425554544F4E2042
:105380004F4646200A0000000A20444F574E204254
:105390005554544F4E204F4E200A00000A20444FCF
:1053A000574E20425554544F4E204F4646200A0037
:1053B0000A20524953494E4720424C494E44200A44
:1053C000000000000A204C4F574552494E472042EA
:1053D0004C494E440A0000000A204C4546545741AF
:1053E0005244204D4F56454D454E54203C2D2D20C6
:1053F0000A0000000A2052494748545741524420AD
:105400004D4F56454D454E54202D2D3E200A00004F
:105410000A2053595354454D2053544F50200A00ED
:105420000A204E4F4E4520474553545552452E2095
:105430000A0000000A204641522047455354555265
:10544000452E200A000000000000000000000000BF
:10545000BD010008DD0100080000000000000000A0
:10546000010203040607080900000000010203040A
:1054700002030405060708090A0B0C0D0E0F101095
:105480000102232D302B2000686C4C0065666745B7
:1054900046470030313233343536373839414243AC
:1054A000444546003031323334353637383961625D
:0854B000636465660000000062
:0854B800310100087D1D000810
:0854C0000D0100088D1D00081C
:1054C800581B00000024F400100000000100000038
:1054D8001400002000000000000000000000000090
:1054E80000000000000000000000000000000000B4
:1054F80000000000000000000000000000000000A4
:105508000000000000000000000000000000000093
:105518000000000000000000000000000000000083
:105528000000000000000000000000000000000073
:04553800000000006F
:0400000508001FE5EB
:00000001FF
